:020000040800F2
:100000005832002029020008653F0008613C0008C2
:10001000613F000815080008E946000800000000DC
:100020000000000000000000000000006140000827
:100030002D0A000800000000E13F0008F940000818
:10004000430200084302000843020008430200087C
:10005000430200084302000843020008430200086C
:10006000430200084302000843020008430200085C
:10007000430200084302000843020008430200084C
:10008000850900089509000843020008430200089A
:100090001908000829080008430200084302000864
:1000A000430200084302000843020008430200081C
:1000B000430200084302000843020008430200080C
:1000C00043020008430200084302000843020008FC
:1000D00043020008430200084302000843020008EC
:1000E0004302000843020008430200080000000029
:1000F0000000000000000000000000000000000000
:100100000000000000000000430200084302000855
:10011000430200084302000843020008B5410008FA
:10012000430200084302000843020008430200089B
:100130004302000800000000000000004302000825
:100140003908000849080008430200084302000873
:1001500000F002F800F059F814A696E8000CB2443A
:10016000B344DA4501D100F050F8BAE80F000FA609
:1001700096E83000A5EB040504EB0607AAEB07049C
:10018000A7F101074FEA15154FEA3414A4F1010451
:10019000AC4201D300F039F813F0010F18BFFB1A7D
:1001A00043F0010300F001F8DBE71847E8BA00006C
:1001B00008BB0000103A24BF78C878C1FAD85207AB
:1001C00024BF30C830C144BF04680C6070470000D1
:1001D000704700000023002400250026103A28BFA5
:1001E00078C1FBD8520728BF30C148BF0B607047A9
:1001F0001FB59DE8030000F0BFF900F08BF91FBDAB
:1002000010B5002000F05CFA10BD00F088FA11462D
:10021000FFF7EEFF07F0A0F800F0A6FA03B4FFF72F
:10022000EFFF03BC00F074FA094880470948004713
:10023000FEE7FEE7FEE7FEE7FEE7FEE7FEE7FEE796
:10024000FEE7FEE704480549054A064B70470000F3
:10025000B141000851010008582C002058320020FC
:10026000582E0020582E002070B5064600F068F980
:10027000056806F10B0020F00704B4429CBF002083
:1002800070BD2B466A68BAB11068A04210D304F161
:10029000080188423CBF5068586007D35168101964
:1002A00041601168091B016058601460101D70BD29
:1002B00013465268002AE7D12146284600F048F943
:1002C0000028DED170BD53EA020C00F069802DE9F0
:1002D000F04B4FF00006002B1FBFB3FA83F503FA73
:1002E00005F424FA05F65E4012BF1643B2FA82F511
:1002F00002FA05F4C5F120051EBF22FA05FC44EA06
:100300000C04203556EA044C4FEA144418BF641C10
:100310004FF000084FF00009904271EB030C39D305
:10032000002919BFB1FA81F701FA07F6B0FA80F790
:1003300000FA07F6C7F120071EBF20FA07FC46EABD
:100340000C062037B6FBF4FCA7EB0507103F07F0BF
:100350001F0BCBF120062CFA06F60CFA0BFB44BF60
:10036000B3460026202FA4BF5E464FF0000B5BEA89
:10037000060C08BF4FF0010B19EB0B0948EB060800
:10038000ABFB027C06FB02CC0BFB03CCC01B71EB6E
:100390000C01C1E70B46024641464846BDE8F08BDA
:1003A00013B5084318BF4FF0FF300146AFF300808C
:1003B000BDE81C4070470B460146184600F043B9A3
:1003C000032A40F2308010F0030C00F0158011F881
:1003D000013BBCF1020F624498BF11F801CB00F859
:1003E000013B38BF11F8013BA2F1040298BF00F8AD
:1003F00001CB38BF00F8013B11F0030300F025806A
:10040000083AC0F0088051F8043B083A51F804CB90
:10041000A0E80810F5E7121D5CBF51F8043B40F856
:10042000043BAFF30080D20724BF11F8013B11F861
:1004300001CB48BF11F8012B24BF00F8013B00F8A5
:1004400001CB48BF00F8012B704710B5203AC0F02F
:100450000B80B1E81850A0E81850B1E81850A0E897
:100460001850203ABFF4F5AF5FEA027C24BFB1E830
:100470001850A0E8185044BF18C918C0BDE8104073
:100480005FEA827C24BF51F8043B40F8043B08BF7C
:100490007047D20728BF31F8023B48BF11F8012B43
:1004A00028BF20F8023B48BF00F8012B704702F03C
:1004B000FF0343EA032242EA024200F002B84FF08F
:1004C000000200B5134694469646203922BFA0E8A4
:1004D0000C50A0E80C50B1F12001BFF4F7AF0907B0
:1004E00028BFA0E80C5048BF0CC05DF804EB8900A1
:1004F00028BF40F8042B08BF704748BF20F8022BE4
:1005000011F0804F18BF00F8012B704770477047FB
:100510007047000008487CB578440090074878444C
:10052000009C0546019004E020460168084480478D
:10053000241DAC42F8D17CBD98B7000096B70000EE
:100540000048704720000020704770477047704790
:1005500038B504460A4600206946AFF300800028FB
:1005600008BF38BD02460099204600F08FF80120F0
:1005700038BD012000F0C5B8F8B5AFF300800546DE
:1005800000200C460C2000BF0646A819A0420DD939
:10059000324669460020AFF30080070008BF00F034
:1005A000B0F80098A04218BF0546C419FFF7C8FF6D
:1005B00005600746F01D20F007004619284600F0A8
:1005C0000AF8B44208BFF8BDA21B31463868BDE83E
:1005D000F84000F05BB800210160416070470C20DA
:1005E000704770B50446051FFFF7AAFF0068002C8E
:1005F00014BF446870BD002C18BFAC423CBF2046FD
:100600006468F8D301680A18AA4218BF456003D18C
:100610002A6805461144016028684119A1421CBF9F
:100620006C6070BD6168696021680844286070BDB5
:1006300010B500F027F8006810BD10B5044600F0B2
:1006400021F8046010BD2DE9F041074615460E461D
:100650001020FFF709FE04000AD06760C4E90265B4
:1006600000F00CF80168216004600020BDE8F08112
:100670000120FBE700487047180000200048704741
:1006800050000020004870471800002003464068D2
:100690008C46002818BF88423CBF03464068F8D308
:1006A00018681844884207D00CF1030020F00700B6
:1006B000001D411A521A0146081D0A60FFF791BF3A
:1006C0002DE9F0410646FFF7D9FF8046454613E085
:1006D00016B1E068B0420ED120682860D4E901016B
:1006E000D8F8007088472046FFF77BFFD8F8000055
:1006F000B842EBD100E025462C68002CE8D1BDE8DB
:10070000F08110B500F03EF8BDE8104000F035B8BB
:1007100001491820ABBEFEE726000200704775466F
:10072000FFF7A8FFAE4605006946534620F00700D4
:10073000854618B020B5FFF785FDBDE820404FF095
:1007400000064FF000074FF000084FF0000BAC46DA
:10075000ACE8C009ACE8C009ACE8C009ACE8C00925
:1007600021F007018D46704710B50446AFF30080B5
:100770002046BDE81040FFF751BD002801D0FFF72B
:10078000C7BF704710B5012805D0002103A000F0B5
:1007900021F8012010BD09A1F8E700005349475294
:1007A000544D454D3A204F7574206F662068656141
:1007B00070206D656D6F7279000000003A20486509
:1007C0006170206D656D6F727920636F72727570E4
:1007D0007465640070B505460C460A2000E06D1C87
:1007E00000F011F835B128780028F8D102E0641C37
:1007F00000F009F814B120780028F8D1BDE8704065
:100800000A20AFF3008008B569468DF80000032088
:10081000ABBE08BDFFE7FEE780B540F6C400C2F2FC
:10082000000000F0C3FB80BD80B540F6C400C2F2FA
:10083000000000F0BBFB80BD80B540F6EC00C2F2CA
:10084000000000F0B3FB80BD80B540F6EC00C2F2C2
:10085000000000F0ABFB80BD80B584B00390029136
:100860000398006846F20041C4F20001884216D1A4
:10087000FFE7039840F2B001C2F20001086002985D
:10088000886203980023019319461A4604F0F2FC8B
:10089000019B03980C211A4604F0ECFC18E0039825
:1008A000006846F60001C4F2000188420FD1FFE75C
:1008B000039840F20411C2F20001086002988862B5
:1008C0000398702100231A4604F0D4FCFFE7FFE7E9
:1008D000039800F0CDFF0398022100F0B1F80398CF
:1008E000102100F0ADF80398012100F0A9F804B040
:1008F00080BD000080B594B01290ADF84610109203
:10090000ADF83E301298006846F20041C4F2000192
:10091000884213D1FFE7BDF84600099000200A90F5
:100920000B900C90BDF83E000D901298109A09A9FA
:1009300008AB00F0AFF88DF84F001FE01298006888
:1009400046F60001C4F20001884213D1FFE7BDF86A
:10095000460002900020039004900590BDF83E00F0
:1009600006901298109A02A901AB00F093F88DF846
:100970004F0003E001208DF84F00FFE79DF84F0086
:1009800014B080BD80B540F61410C2F2000000F033
:10099000D1FF80BD80B540F65810C2F2000000F0D3
:1009A000C9FF80BD81B000904EF6FC51CEF200012F
:1009B000086840F08070086041F20401CEF2000146
:1009C0000020086041F20002CEF20002116841F0FE
:1009D00001011160009944F24022C0F20F024A4323
:1009E00040F23011C2F200010A600A6844F6D353A3
:1009F000C1F26203A2FB0332920940F23413C2F245
:100A000000031A6009684DF68362C4F21B32A1FB31
:100A10000221890C40F23812C2F20002116040F249
:100A20004C11C2F20001086001B07047704700002D
:100A300081B0EFF3108072B60090FFE7FEE7000090
:100A400084B002900191029890F820008DF8030084
:100A50009DF80300012805D0FFE79DF80300022858
:100A60000AD1FFE7019A029801684869104348617A
:100A700000208DF80F0008E00299486A40F48020B9
:100A8000486201208DF80F00FFE79DF80F0004B0C9
:100A90007047000088B00690059104920393069871
:100AA00090F820008DF80700069800688068009094
:100AB0000598806808B9FFE700E0FFE79DF80700A8
:100AC000012806D0FFE79DF80700022840F080804B
:100AD000FFE79DF80300400700280CD4FFE79DF8CE
:100AE00003000007002806D4FFE79DF80300C006B6
:100AF000002864D5FFE70098C0F3016002900299D6
:100B000001208840039908600598806868B9FFE76C
:100B100005980168C06840EA415006990968029A40
:100B200001EB0211C1F880010EE005994A6888685E
:100B3000C96840EAC200084306990968029A01EBB5
:100B40000211C1F88001FFE705980069069909685C
:100B5000029A01EB0211C1F884010598007D012879
:100B60000CD1FFE706980068029900EB0111D1F85B
:100B7000840140F48070C1F88401FFE70498406864
:100B800006990968029A01EB0211C1F88C010498D8
:100B9000006806990968029A01EB0211C1F8880100
:100BA00006980068029900EB0111D1F8800140F02D
:100BB0000100C1F8800100208DF81F0011E00699A6
:100BC000486A40F40010486201208DF81F0008E0D8
:100BD0000699486A40F48020486201208DF81F0081
:100BE000FFE79DF81F0008B07047000086B0049032
:100BF0000391049800680190049890F820008DF803
:100C000003009DF80300012806D0FFE79DF80300CC
:100C1000022840F0B080FFE746F20040C4F2000036
:100C200001900199D1F8000240F00100C1F80002E2
:100C30000199D1F8000220F47C50C1F80002039819
:100C4000426A0199D1F8000240EA0220C1F800028C
:100C50000398406900F01F01012088400290029A29
:100C60000199D1F81C029043C1F81C020398C06995
:100C7000F0B9FFE7029A0199D1F80C029043C1F84C
:100C80000C02039A9088D168526940EA01400199A8
:100C900001EBC201C1F84002039A108891685269C1
:100CA00040EA0140019901EBC201C1F84402FFE7AB
:100CB0000398C06901281ED1FFE7029A0199D1F873
:100CC0000C021043C1F80C02039A90881168526913
:100CD00040EA0140019901EBC201C1F84002039AC8
:100CE00090899168526940EA0140019901EBC20183
:100CF000C1F84402FFE70398806940B9FFE7029A10
:100D00000199D1F804029043C1F8040207E0029A65
:100D10000199D1F804021043C1F80402FFE70398D7
:100D2000006940B9FFE7029A0199D1F81402904393
:100D3000C1F8140207E0029A0199D1F81402104395
:100D4000C1F81402FFE70398006A012808D1FFE701
:100D5000029A0199D1F81C021043C1F81C02FFE766
:100D60000199D1F8000220F00100C1F80002002032
:100D70008DF8170008E00499486A40F48020486222
:100D800001208DF81700FFE79DF8170006B07047A7
:100D900081B0009001B0704786B004900391029238
:100DA0000193049890F820008DF803009DF803004B
:100DB000012806D0FFE79DF80300022840F0E880F4
:100DC000FFE7039880B9FFE704980068C0688007D0
:100DD00048B9FFE70499486A40F4001048620120CE
:100DE0008DF81700DDE00FE00498006800698007C7
:100DF00048B9FFE70499486A40F4001048620120AE
:100E00008DF81700CDE0FFE704980068039900EB28
:100E10000110D0F8B00100F0040002998860029837
:100E2000806858B9FFE704980068039900EB011047
:100E3000D0F8B001400D029908600AE004980068FB
:100E4000039900EB0110D0F8B001C0080299486086
:100E5000FFE704980068039900EB0110D0F8B00197
:100E600000F002000299C86004980068039900EB42
:100E70000110D0F8B40100F00F00082804D3FFE7F8
:100E80000299082008610BE004980068039900EBC0
:100E90000110D0F8B40100F00F0002990861FFE7DB
:100EA00004980068039900EB0110D0F8B40180B2F7
:100EB000000A0299886104980068039900EB011008
:100EC000D0F8B401000C02994861049800680399B5
:100ED00000EB0110D0F8B80101990870049800687F
:100EE000039900EB0110D0F8B801000A019948708D
:100EF00004980068039900EB0110D0F8B801000CC9
:100F00000199887004980068039900EB0110D0F8EB
:100F1000B801000E0199C87004980068039900EBAD
:100F20000110D0F8BC010199087104980068039978
:100F300000EB0110D0F8BC01000A01994871049837
:100F40000068039900EB0110D0F8BC01000C019976
:100F5000887104980068039900EB0110D0F8BC0177
:100F6000000E0199C871039838B9FFE70498016829
:100F7000C86840F02000C86006E00498016808696D
:100F800040F020000861FFE700208DF8170008E01E
:100F90000499486A40F48020486201208DF81700C7
:100FA000FFE79DF8170006B07047000080B58AB0D3
:100FB00009900020089009980068406907900998F6
:100FC0000068406806900998006880680590099854
:100FD0000068C06804900998006800690390099847
:100FE0000068806902909DF81C00C007002800F08E
:100FF0009480FFE79DF81400C00758B3FFE70998F5
:101000000168012088609DF814008007002804D53D
:10101000FFE7099800F076FC1BE09DF814004007FC
:10102000002805D5FFE7089840F4006008900FE01D
:101030009DF814000007002805D5FFE7089840F444
:101040008050089003E0099800F058FCFFE7FFE7A4
:10105000FFE7FFE79DF81500C00760B3FFE70998B9
:1010600001684FF4807088609DF8150080070028A3
:1010700004D5FFE7099800F04DFC1BE09DF8150032
:101080004007002805D5FFE7089840F40050089075
:101090000FE09DF815000007002805D5FFE7089828
:1010A00040F48040089003E0099800F02FFCFFE72F
:1010B000FFE7FFE7FFE79DF81600C00760B3FFE713
:1010C000099801684FF4803088609DF81600800709
:1010D000002804D5FFE7099800F024FC1BE09DF8E8
:1010E00016004007002805D5FFE7089840F40040A7
:1010F00008900FE09DF816000007002805D5FFE7CF
:10110000089840F48030089003E0099800F006FC4D
:10111000FFE7FFE7FFE7FFE7FFE79DF81C00000799
:10112000002810D5FFE79DF81000C006002809D55B
:10113000FFE7089840F400700890099801681020B3
:10114000C860FFE7FFE79DF81C00400700280FD5A7
:10115000FFE79DF810000007002808D5FFE7099871
:1011600001680820C860099800F0FEFAFFE7FFE771
:101170009DF81C00800700280BD5FFE70998006840
:10118000C068800720B1FFE7099800F0F1FAFFE797
:10119000FFE79DF81C004006002810D5FFE79DF8EA
:1011A0000C00C006002809D5FFE7089840F48060CD
:1011B00008900998016810200861FFE7FFE79DF893
:1011C0001C00800600280FD5FFE79DF80C000007E3
:1011D000002808D5FFE709980168082008610998E8
:1011E00000F002FBFFE7FFE79DF81C00C0060028A7
:1011F0000BD5FFE7099800680069800720B1FFE779
:10120000099800F0F5FAFFE7FFE79DF81E00800758
:1012100000280FD5FFE79DF81800C006002808D564
:10122000FFE70998016810204860099800F01CFB4E
:10123000FFE7FFE79DF81E00C00778B1FFE79DF8C4
:1012400018000007002808D5FFE709980168082062
:101250004860099800F06AFBFFE7FFE79DF81D0072
:101260000006002840F18D80FFE79DF81800400738
:10127000002840F18180FFE79DF81D00C00750B1B4
:10128000FFE79DF80800C00728B1FFE7089840F085
:1012900001000890FFE79DF81D00800700280BD58E
:1012A000FFE79DF808008007002805D5FFE70898AC
:1012B00040F002000890FFE79DF81D00400700285D
:1012C0000BD5FFE79DF808004007002805D5FFE78C
:1012D000089840F004000890FFE79DF81D00000703
:1012E000002848D5FFE79DF8080010F0700F42D0A5
:1012F000FFE7029800F0700001460191102814D019
:10130000FFE70198202815D0FFE70198302816D074
:10131000FFE70198402817D0FFE70198502818D020
:10132000FFE70198602819D01DE0089840F00800F8
:10133000089019E0089840F01000089014E0089810
:1013400040F0200008900FE0089840F0400008901E
:101350000AE0089840F08000089005E0089840F402
:101360008070089000E0FFE709980168886920F024
:1013700070008861FFE7FFE7099801680420486072
:10138000FFE7089848B1FFE7089A0999486A1043AF
:1013900048620998FFF7FCFCFFE70AB080BD000037
:1013A00080B584B00290029820B9FFE701208DF843
:1013B0000F00E0E0029890F8200020B9FFE70298C3
:1013C00000F0DEF8FFE702980168086840F00100CD
:1013D000086001F013F80190FFE702980068406888
:1013E000C007A8B9FFE701F009F80199401A0B28D6
:1013F0000DD3FFE70299486A40F400304862029931
:10140000052081F8200001208DF80F00B3E0E4E70B
:1014100002980168086820F00200086000F0EEFF02
:101420000190FFE70298006840688007002815D502
:10143000FFE700F0E3FF0199401A0B280DD3FFE707
:101440000299486A40F4003048620299052081F808
:10145000200001208DF80F008DE0E3E70298007E68
:10146000012807D1FFE702980168086840F0800072
:10147000086006E002980168086820F080000860B3
:10148000FFE70298407E012807D1FFE70298016834
:10149000086840F04000086006E0029801680868AB
:1014A00020F040000860FFE70298807E012807D105
:1014B000FFE702980168086840F02000086006E035
:1014C00002980168086820F020000860FFE7029891
:1014D000C07E012807D1FFE702980168086820F064
:1014E0001000086006E002980168086840F01000EB
:1014F0000860FFE70298007F012807D1FFE7029804
:101500000168086840F00800086006E00298016879
:10151000086820F008000860FFE70298407F012873
:1015200007D1FFE702980168086840F004000860EE
:1015300006E002980168086820F004000860FFE7F0
:10154000029B19685A689868D3F80CC040EA0C00EE
:10155000D3F810C040EA0C005B691843013A10430D
:10156000C861029900204862029A012182F8201085
:101570008DF80F00FFE79DF80F0004B080BD00005C
:1015800080B598B017900020169015901490139085
:101590001798006846F20041C4F2000188426ED1FB
:1015A000FFE740F25010C2F2000001680131016013
:1015B0000068012810D1FFE7FFE741F21C00C4F2E8
:1015C0000200016841F000710160006800F00070E5
:1015D00012901298FFE7FFE7FFE741F21800C4F20C
:1015E0000200016841F008010160006800F0080095
:1015F00011901198FFE74FF4807013900020149021
:10160000159040F60040C4F201000B9013A90C9114
:1016100000F04CFD0B980C994FF4007213920222CB
:1016200014920322169200F041FDFFE70421C4F258
:10163000010108681090109820F4C0401090109894
:1016400040F0E0601090109840F4804010901098A6
:101650000860FFE7142007900521089100220992F5
:1016600000F0B0FF079800F0A3FF0899099A152031
:101670000A9000F0A7FF0A9800F09AFF71E017980F
:10168000006846F60001C4F20001884268D1FFE715
:10169000FFE741F21C00C4F20200016841F08061E2
:1016A0000160006800F080600F900F98FFE740F243
:1016B0005010C2F200000168013101600068012889
:1016C00010D1FFE7FFE741F21C00C4F202000168FD
:1016D00041F000710160006800F000700E900E98FB
:1016E000FFE7FFE7FFE741F21800C4F202000168DC
:1016F00041F008010160006800F008000D900D98AD
:10170000FFE74FF48050139000200590149015903F
:1017100040F60040C4F20100019013A9029100F0CC
:10172000C5FC019802994FF40052139202221492C0
:101730000322169200F0BAFC059A4020039005217E
:10174000049100F03FFF039800F032FF0499059ADE
:101750004120069000F036FF069800F029FFFFE7D1
:10176000FFE718B080BD000081B0009001B0704765
:1017700080B586B005900598006846F20041C4F235
:101780000001884212D1FFE7059840F2B001C2F291
:10179000000103910A1D049201F120030021FFF7CB
:1017A000FBFA03990498896A88471BE0059800684A
:1017B00046F60001C4F20001884212D1FFE7059805
:1017C00040F20411C2F2000101910A1D029201F1DE
:1017D00020030021FFF7E0FA01990298896A8847FF
:1017E000FFE7FFE706B080BD81B0009001B0704711
:1017F00080B586B005900598006846F20041C4F2B5
:101800000001884212D1FFE7059840F2B001C2F210
:10181000000103910A1D049201F120030121FFF749
:10182000BBFA03990498896A88471BE00598006809
:1018300046F60001C4F20001884212D1FFE7059884
:1018400040F20411C2F2000101910A1D029201F15D
:1018500020030121FFF7A0FA01990298896A8847BD
:10186000FFE7FFE706B080BD81B0009001B0704790
:1018700080B584B00290029890F8200001282FD102
:10188000FFE70299022081F82000029801680868A9
:1018900020F00100086000F0B1FD0190FFE7029820
:1018A00000684068C007A8B1FFE700F0A7FD0199F4
:1018B000401A0B280DD3FFE70299486A40F4003024
:1018C00048620299052081F8200001208DF80F0060
:1018D0000FE0E4E70299002048628DF80F0008E06D
:1018E0000299486A40F40020486201208DF80F00F8
:1018F000FFE79DF80F0004B080BD000081B00090AC
:1019000001B0704781B0009001B0704781B0009085
:1019100001B0704781B0009001B0704781B0009075
:1019200001B0704781B0009001B0704781B0009065
:1019300001B0704780B5ACB02B902B98C06B00689D
:101940002A902B980068006829902A982B99096C96
:10195000C8404007002840F17581FFE79DF8A400CA
:101960004007002840F16E81FFE72B98006800686F
:101970008006002807D4FFE72B980168086820F04C
:1019800004000860FFE72B9800688121C4F202017F
:101990008842C0F0A880FFE72B9800680821C4F2B5
:1019A0000201884203D1FFE70420289094E02B989D
:1019B00000681C21C4F20201884203D1FFE74020E5
:1019C000279086E02B9800683021C4F202018842FB
:1019D00004D1FFE74FF48060269077E02B980068F1
:1019E0004421C4F20201884204D1FFE74FF4804051
:1019F000259068E02B9800685821C4F202018842C3
:101A000004D1FFE74FF48020249059E02B98006820
:101A10006C21C4F20201884204D1FFE74FF4800038
:101A200023904AE02B9800688021C4F2020188428A
:101A300004D1FFE74FF0806022903BE02B980068D4
:101A400040F20841C4F20201884203D1FFE70420BA
:101A500021902CE02B98006840F21C41C4F2020156
:101A6000884203D1FFE7402020901DE02B980068BA
:101A700040F23041C4F20201884204D1FFE74FF442
:101A800080601F900DE02B98016840F24442C4F240
:101A900002024FF48020914208BF4FF480401F9013
:101AA000FFE71F982090FFE720982190FFE72198FB
:101AB0002290FFE722982390FFE723982490FFE7E6
:101AC00024982590FFE725982690FFE726982790F1
:101AD000FFE727982890FFE7289840F20441C4F2D6
:101AE00002010860A5E02B9800680821C4F20201F9
:101AF000884203D1FFE704201E9094E02B980068F1
:101B00001C21C4F20201884203D1FFE740201D904E
:101B100086E02B9800683021C4F20201884204D18B
:101B2000FFE74FF480601C9077E02B980068442119
:101B3000C4F20201884204D1FFE74FF480401B90B9
:101B400068E02B9800685821C4F20201884204D151
:101B5000FFE74FF480201A9059E02B9800686C2121
:101B6000C4F20201884204D1FFE74FF480001990CB
:101B70004AE02B9800688021C4F20201884204D117
:101B8000FFE74FF0806018903BE02B98006840F230
:101B90000841C4F20201884203D1FFE704201790F4
:101BA0002CE02B98006840F21C41C4F202018842EC
:101BB00003D1FFE7402016901DE02B98006840F20B
:101BC0003041C4F20201884204D1FFE74FF4806043
:101BD00015900DE02B98016840F24442C4F20202D5
:101BE0004FF48020914208BF4FF480401590FFE7EA
:101BF00015981690FFE716981790FFE7179818901A
:101C0000FFE718981990FFE719981A90FFE71A98BC
:101C10001B90FFE71B981C90FFE71C981D90FFE7A7
:101C20001D981E90FFE71E980421C4F2020108606F
:101C3000FFE72B98C06A20B1FFE72B98C16A88475D
:101C4000FFE7B7E12A982B99096CC8408007002864
:101C500040F17F81FFE79DF8A4008007002840F154
:101C60007881FFE72B9800680068800600280BD475
:101C7000FFE72B980168086820F00A0008602B999C
:101C8000012081F82100FFE72B9800688121C4F230
:101C900002018842C0F0A880FFE72B980068082165
:101CA000C4F20201884203D1FFE70220149094E0BD
:101CB0002B9800681C21C4F20201884203D1FFE77F
:101CC0002020139086E02B9800683021C4F2020196
:101CD000884204D1FFE74FF40070129077E02B9810
:101CE00000684421C4F20201884204D1FFE74FF4A6
:101CF0000050119068E02B9800685821C4F202014E
:101D0000884204D1FFE74FF40030109059E02B983F
:101D100000686C21C4F20201884204D1FFE74FF44D
:101D200000100F904AE02B9800688021C4F2020155
:101D3000884204D1FFE74FF000700E903BE02B98F3
:101D4000006840F20841C4F20201884203D1FFE773
:101D500002200D902CE02B98006840F21C41C4F248
:101D60000201884203D1FFE720200C901DE02B9850
:101D7000006840F23041C4F20201884204D1FFE71A
:101D80004FF400700B900DE02B98016840F2444234
:101D9000C4F202024FF40030914208BF4FF40050E9
:101DA0000B90FFE70B980C90FFE70C980D90FFE766
:101DB0000D980E90FFE70E980F90FFE70F98109088
:101DC000FFE710981190FFE711981290FFE7129823
:101DD0001390FFE713981490FFE7149840F2044122
:101DE000C4F202010860A5E02B9800680821C4F243
:101DF0000201884203D1FFE702200A9094E02B9869
:101E000000681C21C4F20201884203D1FFE72020B0
:101E1000099086E02B9800683021C4F202018842C4
:101E200004D1FFE74FF40070089077E02B9800682A
:101E30004421C4F20201884204D1FFE74FF400506C
:101E4000079068E02B9800685821C4F2020188428C
:101E500004D1FFE74FF40030069059E02B9800685A
:101E60006C21C4F20201884204D1FFE74FF4001054
:101E700005904AE02B9800688021C4F20201884254
:101E800004D1FFE74FF0007004903BE02B9800680E
:101E900040F20841C4F20201884203D1FFE7022068
:101EA00003902CE02B98006840F21C41C4F2020120
:101EB000884203D1FFE7202002901DE02B980068A4
:101EC00040F23041C4F20201884204D1FFE74FF4EE
:101ED000007001900DE02B98016840F24442C4F27A
:101EE00002024FF40030914208BF4FF400500190BD
:101EF000FFE701980290FFE702980390FFE703983D
:101F00000490FFE704980590FFE705980690FFE727
:101F100006980790FFE707980890FFE70898099050
:101F2000FFE709980A90FFE70A980421C4F202012A
:101F30000860FFE7FFE72B99002081F82000FFE70A
:101F40002B98806A20B1FFE72B98816A8847FFE7CA
:101F50002FE02A982B99096CC8400007002827D544
:101F6000FFE79DF8A4000007002821D5FFE72B9884
:101F70000168086820F00E0008602B98C26B016CA5
:101F8000012000FA01F151602B9988632B9981F8A7
:101F90002100FFE72B99002081F82000FFE72B9814
:101FA000006B20B1FFE72B98016B8847FFE7FFE745
:101FB000FFE7FFE72CB080BD83B0019000200090C8
:101FC000019820B9FFE701208DF80B006AE0019825
:101FD000006840F20741C4F20201884218D8FFE7C6
:101FE000019908684FF6F872CBF6FD7210444CF672
:101FF000CD42CCF6CC42A0FB02026FF0030000EA17
:102000009200086401990020C4F20200C86318E03D
:10201000019908684FF6F832CBF6FD7210444CF681
:10202000CD42CCF6CC42A0FB02026FF0030000EAE6
:1020300092000864019940F20040C4F20200C863B3
:10204000FFE70199022081F82100019800680068EB
:102050000090009843F6F071884300900199486819
:10206000D1F808C0CB680A6940EA0C001843104355
:102070004A6910438A691043C969014300980843BB
:102080000090009801990968086001990020886310
:10209000019A012182F82110019981F820008DF820
:1020A0000B00FFE79DF80B0003B0704790B00F9056
:1020B0000E9100200D900990FFE70E9800680D9991
:1020C000C840002800F07F81FFE70D99012088407B
:1020D0000C900E9800680C9908400B900B980C9986
:1020E000884240F06C81FFE70E9840680590002818
:1020F00051D0FFE7059801283AD0FFE7059802285C
:102100003FD0FFE7059803285FD0FFE70598112827
:1021100032D0FFE70598122838D0FFE70598002154
:10212000C1F21101884236D0FFE705980021C1F2C3
:10213000120188422FD0FFE705980021C1F221014A
:10214000884228D0FFE705980021C1F22201884289
:1021500021D0FFE705980021C1F2310188421AD051
:10216000FFE705980021C1F23201884213D02FE029
:102170000E98C06809902CE00E98C0680430099051
:1021800027E00E98C0680830099022E00E98C068D9
:102190000C3009901DE00E98806818B9FFE7042004
:1021A000099011E00E988068012806D1FFE7082009
:1021B00009900C980F99086105E0082009900C9887
:1021C0000F994861FFE7FFE703E00020099000E076
:1021D000FFE70B98FF2803D8FFE70F98049003E070
:1021E0000F9804300490FFE7049808900B98FF289C
:1021F00004D8FFE70D988000039006E00D996FF07A
:102200001F0000EB81000390FFE7039807900898F8
:102210000068079A0F21914088430999914008432B
:10222000089908600E98C079C006002840F1C68061
:10223000FFE7FFE741F21800C4F20200016841F035
:1022400001010160006800F0010006900698FFE7B8
:102250000D9820F003000821C4F2010140580A90B3
:102260000D9800F0030081000F2000FA01F10A9898
:1022700088430A900F9840F60001C4F20101884299
:1022800003D1FFE70020029026E00F9840F60041BE
:10229000C4F20101884203D1FFE70120019018E058
:1022A0000F9841F20001C4F20101884203D1FFE717
:1022B000022000900AE00F9941F20042C4F20102AC
:1022C0000420914208BF03200090FFE7009801908E
:1022D000FFE701980290FFE702980D9901F00301D2
:1022E000890000FA01F10A9808430A900A980D99AA
:1022F00021F003010822C4F2010288500E9880796F
:10230000C006002809D5FFE70B9A40F20841C4F245
:10231000010108681043086008E00B9A40F2084188
:10232000C4F20101086890430860FFE70E988079C5
:102330008006002809D5FFE70B9A40F20C41C4F251
:10234000010108681043086008E00B9A40F20C4154
:10235000C4F20101086890430860FFE70E98807995
:102360008007002809D5FFE70B9A40F20441C4F228
:10237000010108681043086008E00B9A40F204412C
:10238000C4F20101086890430860FFE70E98807965
:10239000C00748B1FFE70B9A40F20041C4F20101C7
:1023A00008681043086008E00B9A40F20041C4F24C
:1023B0000101086890430860FFE7FFE7FFE70D9819
:1023C00001300D9079E610B07047000082B00190A6
:1023D000ADF802108DF801209DF8010028B1FFE74B
:1023E000BDF802000199086105E0BDF80200000493
:1023F00001990861FFE702B07047000042F63C30E7
:10240000C2F200000068704740F20800C2F200000B
:10241000027842F63C31C2F20001086810440860BC
:102420007047000080B542F20001C4F20201086862
:1024300040F010000860032000F0DEF80F2000F0EC
:1024400005F800F07BF8002080BD000080B58CB05E
:102450000B900020049003908DF80700FFE741F2F5
:102460001C00C4F20200016841F020010160006814
:1024700000F0200000900098FFE706A802A900F0F5
:10248000EFF909980490049820B9FFE700F018FAD2
:10249000059004E000F014FA40000590FFE705986D
:1024A0004DF68361C4F21B31A0FB01014FF0FF30F8
:1024B00000EB9140039040F6E410C2F2000041F2BC
:1024C0000041C4F20001016040F2E731C1600399AC
:1024D0004160002101618160816100F087FF8DF81A
:1024E00007009DF8070028BBFFE740F6E410C2F2A2
:1024F000000000F0CDFF8DF807009DF80700C0B97F
:10250000FFE7372000F054F80B980F280CD8FFE7AE
:102510000B993720002200F055F80B9840F20C017F
:10252000C2F20001086003E001208DF80700FFE718
:10253000FFE7FFE79DF807000CB080BD80B584B0D1
:10254000FFE741F21800C4F20200016841F0010106
:102550000160006800F0010003900398FFE7FFE7C7
:1025600041F21C00C4F20200016841F08051016098
:10257000006800F0805002900298FFE76FF00100C1
:102580000F21002200F01EF8FFE70421C4F2010130
:1025900008680190019820F0E0600190019840F0F7
:1025A0000070019001980860FFE704B080BD000052
:1025B00080B582B08DF807009DF9070004F09EFDFC
:1025C00002B080BD80B586B08DF8170004910392EB
:1025D0000020029004F0AAFD02909DF917000190DE
:1025E00002980499039A01F0BFFC0146019804F097
:1025F000A5FD06B080BD000080B582B001900198B5
:1026000004F0BEFD02B080BD80B584B0029001919F
:10261000029820B9FFE701208DF80F001BE1019817
:1026200042F20001C4F20201096801F00701884288
:1026300016D9FFE742F20000C4F20200016821F05F
:102640000701019A11430160006800F00700019939
:10265000884204D0FFE701208DF80F00FBE0FFE780
:1026600002980078800700282AD5FFE702980078B2
:102670004007002809D5FFE741F20401C4F2020136
:10268000086840F4E0600860FFE7029800780007FF
:10269000002809D5FFE741F20401C4F202010868ED
:1026A00040F460500860FFE741F20401C4F2020107
:1026B000086820F0F000029A926810430860FFE773
:1026C00002980078C007002860D0FFE702984068B1
:1026D00001280ED1FFE741F20000C4F202000068B9
:1026E0008003002804D4FFE701208DF80F00B2E03A
:1026F00021E00298406802280ED1FFE741F2000075
:10270000C4F2020000688001002804D4FFE7012021
:102710008DF80F009FE00DE041F20000C4F20200CE
:1027200000688007002804D4FFE701208DF80F001F
:1027300091E0FFE7FFE741F20401C4F202010868FB
:1027400020F00300029A526810430860FFF756FE1B
:102750000090FFE741F20400C4F20200006800F0BC
:102760000C0002994968B0EB810F0ED0FFE7FFF72C
:1027700045FE0099401A41F28931884204D3FFE7AF
:1027800003208DF80F0066E0E4E7FFE7019842F2CE
:102790000001C4F20201096801F00701884216D263
:1027A000FFE742F20000C4F20200016821F00701D5
:1027B000019A11430160006800F007000199884206
:1027C00004D0FFE701208DF80F0044E0FFE70298F6
:1027D0000078400700280CD5FFE741F20401C4F25D
:1027E0000201086820F4E060029AD2681043086091
:1027F000FFE702980078000700280DD5FFE741F2B7
:102800000401C4F20201086820F46050029A1269BF
:1028100040EAC2000860FFE700F076F841F20401E8
:10282000C4F202010968C9B20A094BF2B631C0F616
:102830000001895CC84040F20001C2F2000108605A
:1028400040F20C00C2F200000068FFF7FFFD00201C
:102850008DF80F00FFE79DF80F0004B080BD000069
:1028600082B00190009101990F20086041F20400AC
:10287000C4F20200016801F00301019A516001688D
:1028800001F0F001019A9160016801F4E061019AA0
:10289000D160006800F46050C0080199086142F2FC
:1028A0000000C4F20200006800F007000099086010
:1028B00002B0704740F20000C2F2000000687047AA
:1028C00080B5FFF7F7FF41F20401C4F20201096885
:1028D000C1F302224BF2C631C0F60001895CC84048
:1028E00080BD000080B5FFF7E5FF41F20401C4F2AE
:1028F00002010968C1F3C2224BF2C631C0F60001E1
:10290000895CC84080BD000080B588B00020079079
:1029100006900590049003900290019041F204000B
:10292000C4F2020000680790079800F00C0001460E
:102930000091002878D0FFE70098042804D0FFE732
:102940000098082806D070E041F20020C0F27A001A
:10295000039070E00798C0F383414BF2CE30C0F68D
:102960000000405C04909DF81E00C007002850D075
:10297000FFE741F22C00C4F20200016801F00F02EF
:102980004BF2DC31C0F60001895C06910068C0039F
:10299000002825D5FFE741F22C00C4F202000168AF
:1029A000CAB2012101EB12110291006800F47061BA
:1029B000022000EB1120019001980499A0FB010175
:1029C00041F20022C0F27A02A0FB020301FB0231B5
:1029D000029A069BA2FB0323FDF775FC05900AE013
:1029E000049841F20021C0F27A0148430699B0FBF5
:1029F000F1F00590FFE704984BF2CE31C0F60001EC
:102A0000497B884204D1FFE7059840080590FFE71D
:102A100007E0049840F60011C0F23D0148430590DC
:102A2000FFE70598039006E0FFE741F20020C0F2BF
:102A30007A000390FFE7039808B080BD80B586B0A8
:102A40000490049820B9FFE701208DF81700EFE308
:102A500004980078C007002800F0AE80FFE741F23C
:102A60000400C4F20200006800F00C00042813D037
:102A7000FFE741F20400C4F20200006800F00C001D
:102A800008281BD1FFE741F20400C4F202000068ED
:102A9000C003002812D5FFE741F20000C4F2020093
:102AA00000688003002808D5FFE70498806820B9F3
:102AB000FFE701208DF81700BAE37CE0FFE70498F8
:102AC0008068B0F5803F09D1FFE741F20001C4F210
:102AD0000201086840F48030086032E004988068A1
:102AE00068B9FFE741F20001C4F20201086820F46E
:102AF00080300860086820F48020086020E0049896
:102B00008068B0F5A02F0DD1FFE741F20001C4F2BB
:102B10000201086840F480200860086840F48030B2
:102B200008600CE041F20001C4F20201086820F4E0
:102B300080300860086820F480200860FFE7FFE725
:102B4000FFE7FFE704988068D0B1FFE7FFF756FC86
:102B50000390FFE741F20000C4F202000068800326
:102B600000280CD4FFE7FFF749FC0399401A6528B9
:102B700004D3FFE703208DF8170059E3EAE719E0D3
:102B8000FFF73CFC0390FFE741F20000C4F20200B3
:102B90000068800300280CD5FFE7FFF72FFC03999E
:102BA000401A652804D3FFE703208DF817003FE3A0
:102BB000EAE7FFE7FFE7FFE70498007880070028CF
:102BC00040F18D80FFE741F20400C4F2020000688A
:102BD00010F00C0F13D0FFE741F20400C4F2020022
:102BE000006800F00C00082829D1FFE741F204003A
:102BF000C4F202000068C003002820D4FFE741F2BD
:102C00000000C4F2020000688007002809D5FFE731
:102C100004984069012804D0FFE701208DF81700CF
:102C200006E341F20001C4F20201086820F0F80056
:102C3000049A926940EAC2000860FFE74EE00498F7
:102C4000406958B3FFE70021C4F242210120086027
:102C5000FFF7D4FB0390FFE741F20000C4F202004B
:102C60000068800700280CD4FFE7FFF7C7FB039933
:102C7000401A032804D3FFE703208DF81700D7E29A
:102C8000EAE741F20001C4F20201086820F0F8000E
:102C9000049A926940EAC20008601EE00021C4F272
:102CA000422100200860FFF7A9FB0390FFE741F2F3
:102CB0000000C4F202000068800700280CD5FFE77E
:102CC000FFF79CFB0399401A032804D3FFE7032076
:102CD0008DF81700ACE2EAE7FFE7FFE7FFE70498AB
:102CE00000780007002848D5FFE70498C06918B3AA
:102CF000FFE740F28041C4F2422101200860FFF763
:102D00007DFB0390FFE741F22400C4F2020000685B
:102D1000800700280CD4FFE7FFF770FB0399401AE7
:102D2000032804D3FFE703208DF8170080E2EAE7C9
:102D3000012001F077F91FE040F28041C4F2422106
:102D400000200860FFF75AFB0390FFE741F22400E0
:102D5000C4F202000068800700280CD5FFE7FFF7E7
:102D60004DFB0399401A032804D3FFE703208DF895
:102D700017005DE2EAE7FFE7FFE704980078400705
:102D8000002840F1D880FFE700208DF8070041F2CD
:102D90001C00C4F202000068C000002813D4FFE742
:102DA000FFE741F21C00C4F20200016841F08051CB
:102DB0000160006800F0805000900098FFE701205B
:102DC0008DF80700FFE747F20000C4F2000000683A
:102DD000C005002822D4FFE747F20001C4F2000139
:102DE000086840F480700860FFF708FB0390FFE775
:102DF00047F20000C4F200000068C00500280CD4AF
:102E0000FFE7FFF7FBFA0399401A652804D3FFE7B1
:102E100003208DF817000BE2EAE7FFE7FFE70498CD
:102E20000069012809D1FFE741F22001C4F2020143
:102E3000086840F00100086031E00498006968B952
:102E4000FFE741F22001C4F20201086820F001000E
:102E50000860086820F0040008601FE0049800691A
:102E600005280DD1FFE741F22001C4F202010868F4
:102E700040F004000860086840F0010008600CE0C1
:102E800041F22001C4F20201086820F0010008604C
:102E9000086820F004000860FFE7FFE7FFE7FFE7AE
:102EA00004980069E0B1FFE7FFF7A8FA0390FFE795
:102EB00041F22000C4F202000068800700280ED40E
:102EC000FFE7FFF79BFA0399401A41F289318842E4
:102ED00004D3FFE703208DF81700A9E1E8E71BE022
:102EE000FFF78CFA0390FFE741F22000C4F20200E2
:102EF0000068800700280ED5FFE7FFF77FFA0399E7
:102F0000401A41F28931884204D3FFE703208DF84B
:102F100017008DE1E8E7FFE79DF80700012809D1D8
:102F2000FFE741F21C01C4F20201086820F0805062
:102F30000860FFE7FFE70498C06A002800F0B78048
:102F4000FFE741F20400C4F202000068C003002859
:102F500017D5FFE741F20400C4F20200006800F058
:102F60000C0008280DD1FFE741F22C00C4F202004A
:102F70000068C003002804D5FFE701208DF8170082
:102F800056E10498C06A022868D1FFE741F20000C8
:102F9000C4F202000068C000002810D5FFE741F22B
:102FA0002C00C4F20200006800F0F0000499496BA4
:102FB000884204D0FFE701208DF8170038E168212E
:102FC000C4F2422100200860FFF718FA0390FFE7DF
:102FD00041F20000C4F202000068000100280CD594
:102FE000FFE7FFF70BFA0399401A652804D3FFE7C0
:102FF00003208DF817001BE1EAE741F22C01C4F22F
:103000000201086820F0F000049A526B1043086037
:10301000086820F47060049A126B104308606821FD
:10302000C4F2422101200860FFF7E8F90390FFE7AE
:1030300041F20000C4F202000068000100280CD434
:10304000FFE7FFF7DBF90399401A652804D3FFE790
:1030500003208DF81700EBE0EAE726E041F22C01AF
:10306000C4F20201086820F4803008606821C4F2CC
:10307000422100200860FFF7C1F90390FFE741F209
:103080000000C4F202000068000100280CD5FFE730
:10309000FFF7B4F90399401A652804D3FFE703202A
:1030A0008DF81700C4E0EAE7FFE7FFE7FFE70498C1
:1030B000006A002800F0B880FFE741F20400C4F283
:1030C0000200006800F00C00082800F08780FFE78D
:1030D0000498006A022861D1FFE76021C4F242210E
:1030E00000200860FFF78AF90390FFE741F2000033
:1030F000C4F202000068800100280CD5FFE7FFF74A
:103100007DF90399401A032804D3FFE703208DF8C3
:1031100017008DE0EAE70498406AB0F5803F11D1CE
:10312000FFE70498426841F22C01C4F202010868EA
:1031300010430860086820F00F00049AD26810431A
:103140000860FFE741F20401C4F20201086820F4BC
:103150007410049B5A6A9B6A1A43104308606021EA
:10316000C4F2422101200860FFF748F90390FFE70D
:1031700041F20000C4F202000068800100280CD473
:10318000FFE7FFF73BF90399401A032804D3FFE751
:1031900003208DF817004BE0EAE71EE06021C4F23F
:1031A000422100200860FFF729F90390FFE741F270
:1031B0000000C4F202000068800100280CD5FFE77F
:1031C000FFF71CF90399401A032804D3FFE70320F3
:1031D0008DF817002CE0EAE7FFE724E00498006A86
:1031E000012804D1FFE701208DF8170020E041F20B
:1031F0000400C4F2020000680290029800F48030DB
:103200000499496A884208D1FFE7029800F47010D7
:103210000499896A884204D0FFE701208DF81700DD
:1032200006E0FFE7FFE7FFE700208DF81700FFE764
:103230009DF8170006B080BD81B0009001B07047C6
:1032400081B0009001B0704784B0029001910020DD
:103250000090FFE7029890F83C00012804D1FFE7B6
:1032600002208DF80F0044E00299012081F83C0013
:10327000FFE7FFE7009820F0FF000199C9680843C5
:103280000090009820F440700199896808430090EC
:10329000009820F4806001994968084300900098E4
:1032A00020F400600199096808430090009820F418
:1032B00080500199096908430090009820F400505B
:1032C0000199496908430090009820F480400199D1
:1032D000C969084300900098029909684864FFE7AB
:1032E0000299002081F83C00FFE700208DF80F00D4
:1032F000FFE79DF80F0004B07047000085B0039011
:103300000291FFE7039890F83C00012804D1FFE701
:1033100002208DF8130064E00399012081F83C003D
:10332000FFE7FFE70399022081F83D00039800685A
:10333000406801900398006880680090019820F030
:10334000700001900298016801980843019001986B
:103350000399096848600398006842F60041C4F286
:103360000101884221D0FFE703980068B0F1804F47
:103370001BD0FFE70398006840F20041C4F200014F
:10338000884212D0FFE70398006840F60001C4F2BB
:103390000001884209D0FFE70398006840F6004129
:1033A000C4F2000188420ED1FFE7009820F08000AF
:1033B0000090029841680098084300900098039993
:1033C00009688860FFE70399012081F83D00FFE765
:1033D0000399002081F83C00FFE700208DF81300DE
:1033E000FFE79DF8130005B07047000080B582B07C
:1033F0000090009820B9FFE701208DF807003FE01A
:10340000009890F83D0040B9FFE70099002081F84E
:103410003C00009800F038F8FFE70099022081F89E
:103420003D00009951F8040B00F0CCFE00990120FA
:1034300081F84600FFE70099012081F83E000099DD
:1034400081F83F00009981F84000009981F841001F
:10345000FFE7FFE70099012081F84200009981F819
:103460004300009981F84400009981F84500FFE786
:103470000099012081F83D0000208DF80700FFE74A
:103480009DF8070002B080BD81B0009001B0704788
:1034900083B00190019890F83D00012804D0FFE727
:1034A00001208DF80B0050E00199022081F83D00C9
:1034B00001980168C86840F00100C8600198006880
:1034C00042F60041C4F20101884221D0FFE7019891
:1034D0000068B0F1804F1BD0FFE70198006840F210
:1034E0000041C4F20001884212D0FFE70198006851
:1034F00040F60001C4F20001884209D0FFE70198BC
:10350000006840F60041C4F20001884212D1FFE792
:1035100001980068806800F0070000900098062875
:1035200007D0FFE701980168086840F001000860D3
:10353000FFE706E001980168086840F001000860B4
:10354000FFE700208DF80B00FFE79DF80B0003B0AC
:103550007047000081B0009001B0704780B582B024
:10356000019001980068006900F002010020B0EBB2
:10357000510F28D0FFE701980068C06800F00201F1
:103580000020B0EB510F1DD0FFE7019801686FF0EC
:10359000020008610199012008770198006880699C
:1035A000800720B1FFE70198FFF7D4FF06E00198FC
:1035B00000F042F9019800F051FAFFE7019900206C
:1035C0000877FFE7FFE701980068006900F0040151
:1035D0000020B0EB910F29D0FFE701980068C06888
:1035E00000F004010020B0EB910F1ED0FFE701981E
:1035F00001686FF0040008610199022008770198C2
:103600000068806910F4407F04D0FFE70198FFF75D
:10361000A1FF06E0019800F00FF9019800F01EFAF2
:10362000FFE7019900200877FFE7FFE701980068AE
:10363000006900F008010020B0EBD10F28D0FFE7AF
:1036400001980068C06800F008010020B0EBD10FBD
:103650001DD0FFE7019801686FF00800086101992B
:103660000420087701980068C069800720B1FFE74F
:103670000198FFF76FFF06E0019800F0DDF8019870
:1036800000F0ECF9FFE7019900200877FFE7FFE77A
:1036900001980068006900F010010020B0EB111FD4
:1036A00029D0FFE701980068C06800F010010020F1
:1036B000B0EB111F1ED0FFE7019801686FF01000FA
:1036C000086101990820087701980068C06910F422
:1036D000407F04D0FFE70198FFF73CFF06E0019828
:1036E00000F0AAF8019800F0B9F9FFE7019900206D
:1036F0000877FFE7FFE7019800680069C00780B11D
:10370000FFE701980068C068C00748B1FFE701986B
:1037100001686FF001000861019800F0A3F9FFE76C
:10372000FFE7019800680069C1B20020B0EBD11F2B
:1037300013D0FFE701980068C068C1B20020B0EB69
:10374000D11F09D0FFE7019801686FF08000086180
:103750000198FFF771FDFFE7FFE701980068006936
:1037600000F040010020B0EB911F14D0FFE701985A
:103770000068C06800F040010020B0EB911F09D044
:10378000FFE7019801686FF040000861019800F0C0
:103790007BF9FFE7FFE701980068006900F020016E
:1037A0000020B0EB511F14D0FFE701980068C068FB
:1037B00000F020010020B0EB511F09D0FFE7019875
:1037C00001686FF0200008610198FFF739FDFFE7FD
:1037D000FFE702B080BD000080B586B005900020F4
:1037E00004900390029001900598006842F6004111
:1037F000C4F2010188421DD1FFE7FFE741F2180042
:10380000C4F20200016841F004010160006800F0A8
:10381000040000900098FFE74FF4806001900220C0
:103820000290049040F60000C4F2010001A9FEF7E6
:103830003DFCFFE706B080BD81B0009001B070474D
:1038400080B586B004900391029200208DF80700A5
:10385000FFE7049890F83C00012804D1FFE702201C
:103860008DF8170089E00499012081F83C00FFE7FA
:10387000FFE7029800900C2800F270800099DFE8C2
:1038800001F0076D6D6D206D6D6D3A6D6D6D5300BE
:1038900004980068039900F01DFD04980168886988
:1038A00040F00800886104980168886920F00400ED
:1038B00088610398026904980168886910438861E7
:1038C00050E004980068039900F06CFD04980168CA
:1038D000886940F40060886104980168886920F470
:1038E000806088610398026904980168886940EAE9
:1038F0000220886136E004980068039900F0BEFD5C
:1039000004980168C86940F00800C861049801681B
:10391000C86920F00400C86103980269049801682E
:10392000C8691043C8611DE004980068039900F05D
:1039300011FE04980168C86940F40060C8610498E9
:103940000168C86920F48060C8610398026904981E
:103950000168C86940EA0220C86103E001208DF8CF
:103960000700FFE7FFE70499002081F83C00FFE72C
:103970009DF807008DF81700FFE79DF8170006B0C7
:1039800080BD000080B582B00090009820B9FFE7AC
:1039900001208DF807003FE0009890F83D0040B905
:1039A000FFE70099002081F83C00009800F038F80B
:1039B000FFE70099022081F83D00009951F8040BBF
:1039C00000F000FC0099012081F84600FFE7009913
:1039D000012081F83E00009981F83F00009981F8AC
:1039E0004000009981F84100FFE7FFE700990120BE
:1039F00081F84200009981F84300009981F8440061
:103A0000009981F84500FFE70099012081F83D0009
:103A100000208DF80700FFE79DF8070002B080BD89
:103A200082B001900198006842F60041C4F20101A1
:103A3000884210D1FFE7FFE741F21800C4F202000C
:103A4000016841F400610160006800F400600090CA
:103A50000098FFE7FFE702B07047000081B00090D8
:103A600001B0704780B582B001900198006841F2C2
:103A70000041C4F20001884203D1FFE7FEF7C4FC15
:103A8000FFE702B080BD000081B0009001B0704738
:103A900080B582B00090009820B9FFE701208DF832
:103AA000070040E00098806908B1FFE700E0FFE709
:103AB000009890F8410040B9FFE70099002081F894
:103AC0004000009800F034F8FFE70099242081F8C6
:103AD000410000980168C86820F40050C860009850
:103AE00000F0A4FD00980168086920F49040086186
:103AF00000980168486920F02A0048610098016830
:103B0000C86840F40050C860009900204864009ADA
:103B1000202182F84110009A82F8421000994863EF
:103B20008DF80700FFE79DF8070002B080BD000098
:103B300080B58CB00B9000200A90099008900790F7
:103B40000B98006844F20041C4F20001884240F042
:103B50008480FFE7FFE741F21C00C4F20200016825
:103B600041F400310160006800F4003006900698CE
:103B7000FFE7FFE741F21800C4F20200016841F0DC
:103B800004010160006800F0040005900598FFE75B
:103B9000042007900220089003200A9040F60000BD
:103BA000C4F20100019007A90291FEF77FFA019883
:103BB0000299082207920022039208920992FEF7C6
:103BC00075FA039940F61410C2F2000004906C22BA
:103BD000C4F202020260416081608022C260016121
:103BE000416181614FF40051C161FEF7E5F918B1FF
:103BF000FFE7FCF71DFFFFE7FFE70B9840F6141106
:103C0000C2F20001C1630B984862FFE740F658100A
:103C1000C2F2000000908021C4F202010160102174
:103C20004160002181608022C26001614161816147
:103C30004FF40051C161FEF7BFF918B1FFE7FCF77F
:103C4000F7FEFFE7FFE70B9840F65811C2F20001BC
:103C500081630B984862FFE7FFE70CB080BD00006E
:103C6000FFE7FEE780B582B040F6C400C2F2000074
:103C7000019046F20041C4F200010160042141605C
:103C800000218160C1604FF4802202614FF4001274
:103C900042610176012242768176C17601774177D1
:103CA000FDF77EFB18B1FFE7FCF7C2FEFFE702B0AD
:103CB00080BD000080B582B040F6EC00C2F200008A
:103CC000019046F60001C4F2000101600421416048
:103CD00000218160C1604FF4003202614FF4800224
:103CE00042610176012242768276C1760177417780
:103CF000FDF756FB18B1FFE7FCF79AFEFFE702B0AD
:103D000080BD000080B586B0FFE741F21400C4F228
:103D10000200016841F001010160006800F001004B
:103D200005900598FFE710200190052102910022DF
:103D30000392FEF747FC0198FEF73AFC0299039ABA
:103D400011200490FEF73EFC0498FEF731FC06B00B
:103D500080BD000080B582B044F28500C0F600004E
:103D60004BF2EC32C0F600020021019103F0B4FBEB
:103D7000019940F69402C2F20002106044F2A500DC
:103D8000C0F600004BF61442C0F6000203F0A4FB9C
:103D900041F62031C2F20001086002B080BD00008F
:103DA00080B58AB000200990089007900690FFE740
:103DB00041F21800C4F20200016841F020010160E4
:103DC000006800F0200005900598FFE7FFE741F24A
:103DD0001800C4F20200016841F0040101600068AB
:103DE00000F0040004900498FFE7FFE741F2180098
:103DF000C4F20200016841F008010160006800F0AF
:103E0000080003900398FFE740F60040C4F2010069
:103E10000290032101910022FEF7D8FA019902983D
:103E200006910121079102210891099106A9FEF747
:103E30003DF90AB080BD000080B594B00021019129
:103E400013911291119110910F910E910D910C916E
:103E50000B910A910991089107910691059104919E
:103E6000039140F69C10C2F20000029042F600421C
:103E7000C4F20102026024224260816040F2E73213
:103E8000C2600161416180218161FFF77BFD18B152
:103E9000FFE7FCF7CDFDFFE700201290139040F6FE
:103EA0009C10C2F2000012A9FFF728FA18B1FFE730
:103EB000FCF7BEFDFFE760200B9000200C900D90FA
:103EC0000E900F901090119040F69C10C2F20000DE
:103ED0000BA90822FFF7B4FC18B1FFE7FCF7A8FD17
:103EE000FFE70020039004900590069007904FF4A0
:103EF000005108910A9040F69C10C2F2000003A9FC
:103F0000FFF7A2F918B1FFE7FCF792FDFFE740F6D3
:103F10009C10C2F20000FFF75FFC14B080BD0000EF
:103F200080B582B040F62C20C2F20000019044F22D
:103F30000041C4F2000101604FF4E1314160002111
:103F40008160C16001610C2242618161C161FFF742
:103F50009FFD18B1FFE7FCF76BFDFFE702B080BDE6
:103F6000FFE7FEE7FFE7FEE788B0079006910592BE
:103F7000079800F0070004900498C0F10700052896
:103F800003D3FFE70420019004E00498C0F1070088
:103F90000190FFE70198039004980430062803D8A5
:103FA000FFE70020009003E0049803380090FFE74B
:103FB0000098029006980399012202FA01F1013952
:103FC0000840029B984005999A40013A11400843E5
:103FD00008B0704700000000000000000000000072
:103FE000EFF30980BFF36F8F0D4B1A6820E9F00FD4
:103FF00010602DE908404FF0500080F3118804F064
:10400000B3FE4FF0000080F31188BDE80840196846
:104010000868B0E8F00F80F30988BFF36F8F70472E
:10402000A00B002082B00190019840F20001C2F282
:1040300000010968C90844F6D352C1F26202A1FB2B
:104040000221890948430090FFE700BFFFE700987D
:10405000411E00910028F8D1FFE702B07047000030
:10406000074B19680868B0E8F00F80F30988BFF3C0
:104070006F8F4FF0000080F311884EF00D0E7047E7
:10408000A00B002080B582B00190FFE740F67421BC
:10409000C2F20001086801300860012003F07AF9DB
:1040A000F4E7000080B584B00390FFE701F0B4F8B6
:1040B00040F66801C2F200010291086041F2180066
:1040C000C2F20000019000F061FB019800F018FCC2
:1040D000019800F019FC019800F00CFB01F09CF82D
:1040E00002990968401A41F61C31C2F200010860C9
:1040F000012003F04FF9D9E780B582B04FF05000AE
:1041000080F31188BFF36F8FBFF34F8F009005F0DE
:1041100001FC40B1FFE74EF60451CEF200014FF032
:1041200080500860FFE700200190019880F311881B
:1041300002B080BD80B596B008A801903821FCF788
:10414000BEF9019800210291079106910591049111
:104150000391012308934FF480320A920B910D933F
:1041600009910223109311924FF4E01212921391CD
:10417000FEF764FC18B1FFE7FCF75AFCFFE70F20DD
:10418000039002210491002005904FF48062069272
:10419000079003A8FEF738FA18B1FFE7FCF748FCD0
:1041A000FFE77021C4F242210120086016B080BDF3
:1041B0007047000080B540F6E410C2F20000FFF73F
:1041C000CDF980BD83B00290019102980068009003
:1041D000029842F60041C4F2010188421DD0FFE777
:1041E0000298B0F1804F18D0FFE7029840F20041EA
:1041F000C4F20001884210D0FFE7029840F60001A7
:10420000C4F20001884208D0FFE7029840F600415E
:10421000C4F2000188420AD1FFE7009820F0700044
:10422000009001984168009808430090FFE70298C9
:1042300042F60041C4F2010188421DD0FFE7029816
:10424000B0F1804F18D0FFE7029840F20041C4F26D
:104250000001884210D0FFE7029840F60001C4F246
:104260000001884208D0FFE7029840F60041C4F2FE
:10427000000188420AD1FFE7009820F440700090C6
:104280000198C168009808430090FFE7009820F06B
:1042900080000199496908430090009802990860DC
:1042A000019880680299C862019800680299886242
:1042B000029842F60041C4F20101884205D1FFE7AD
:1042C0000198006902990863FFE70299012048619B
:1042D00003B0704785B0049003910498006A019080
:1042E0000499086A20F00100086204984068009070
:1042F000049880690290029820F070000290029861
:1043000020F003000290039801680298084302908D
:10431000019820F0020001900398816801980843F9
:104320000190049842F60041C4F2010188420ED186
:10433000FFE7019820F0080001900398C1680198F8
:1043400008430190019820F004000190FFE70498D1
:1043500042F60041C4F20101884213D1FFE7009800
:1043600020F480700090009820F400700090039872
:1043700041690098084300900398816900980843B8
:104380000090FFE7009804994860029804998861BA
:10439000039840680499486301980499086205B03D
:1043A0007047000085B0049003910498006A019062
:1043B0000499086A20F01000086204984068009090
:1043C000049880690290029820F4E04002900298DC
:1043D00020F44070029003980168029840EA01209E
:1043E0000290019820F020000190039881680198C4
:1043F00040EA01100190049842F60041C4F2010124
:1044000088420FD1FFE7019820F0800001900398C7
:10441000C168019840EA01100190019820F0400025
:104420000190FFE7049842F60041C4F2010188427E
:1044300015D1FFE7009820F480600090009820F4E8
:104440000060009003984169009840EA8100009064
:1044500003988169009840EA81000090FFE7009886
:104460000499486002980499886103984068049907
:10447000886301980499086205B0704785B004907C
:1044800003910498006A01900499086A20F48070EE
:1044900008620498406800900498C06902900298ED
:1044A00020F070000290029820F003000290039820
:1044B0000168029808430290019820F4007001906E
:1044C00003988168019840EA01200190049842F61F
:1044D0000041C4F2010188420FD1FFE7019820F4A6
:1044E000006001900398C168019840EA01200190A2
:1044F000019820F480600190FFE7049842F60041A3
:10450000C4F20101884215D1FFE7009820F48050E1
:104510000090009820F400500090039841690098A2
:1045200040EA0110009003988169009840EA011068
:104530000090FFE700980499486002980499C861C8
:10454000039840680499C86301980499086205B00B
:104550007047000085B0049003910498006A0190B0
:104560000499086A20F4805008620498406800901A
:104570000498C0690290029820F4E04002900298EA
:1045800020F44070029003980168029840EA0120EC
:104590000290019820F400500190039881680198DE
:1045A00040EA01300190049842F60041C4F2010152
:1045B00088420BD1FFE7009820F4804000900398D8
:1045C0004169009840EA81100090FFE70098049943
:1045D000486002980499C861039840680499086487
:1045E00001980499086205B07047000080B5482022
:1045F000FCF7D8F940F6C400C2F2000045F21931C8
:10460000C0F60001FCF728F940F6EC00C2F2000009
:1046100045F28D31C0F60001FCF71EF941F2180099
:10462000C2F2000002F0BAF880BD000080B584B08C
:10463000039003980068006920F44050039A1168C1
:10464000D26810430861039988680A694969104370
:104650000843029003980068C06841F20C618843E7
:104660000299084303990968C86003980068406983
:1046700020F44070039A11689269104348610398CE
:10468000006843F60001C4F20101884204D1FFE74B
:10469000FEF728F9019003E0FEF712F90190FFE719
:1046A000019819214843039A116852689200B0FB9F
:1046B000F2FC48F21F52C5F2EB12ACFB0230430988
:1046C000642003FB10CC322000EB0C10A0FB020294
:1046D000F02000EA521000EB0310C2F34312104422
:1046E000886004B080BD0000FFE7FEE780B502F0FF
:1046F00065FD80BD80B584B0039040F6C400C2F271
:10470000000040F2A002C2F200024FF40071082340
:10471000FCF7F0F840F68800C2F2000001780131A1
:104720000170007805281ED1FFE740F68801C2F22B
:1047300000010020087040F6EC00C2F20000029078
:1047400040F2DC02C2F200022D2108230193FCF7A3
:10475000D1F8019B029840F2E402C2F200023D212E
:10476000FCF7C8F8FFE7039800F5136001F070F953
:1047700040F6C400C2F2000040F29002C2F2000211
:104780000D210823FCF7B6F804B080BD80B588B0D1
:104790000790079800F5136001F048F90021CCF26A
:1047A000A00106F013FA06F023F90022039248F262
:1047B0000003C4F2760305F055FC05F021FC0799CF
:1047C000C1F8DC0A079800F5936001F0CFFA079969
:1047D000C1F8E00A079801F0DBFA4CF28F21C3F62A
:1047E000F55106F099FB4FF0804106F0EFF907997B
:1047F000C1F8E40A079800F5936001F0C9FA009047
:10480000079800F5936001F091FA0146009806F0D0
:1048100083FB4CF6EF11C4F21811029106F07CFBF9
:1048200006F0CAFA0799A1F8A00A079800F5936064
:1048300001F074FA06F0DCF8039A0023C3F638732B
:10484000049305F0E9FE05F0DBFB0799C1F8A40A23
:10485000079801F09DFA0190079801F067FA014668
:10486000019806F059FB029906F056FB06F0A4FAEF
:104870000799A1F8B80A079801F050FA06F0B8F8BD
:10488000039A049B05F0C8FE05F0BAFB0799C1F82E
:10489000BC0A0798D0F8A40A0021C4F27A41059115
:1048A00006F03AFB06F088FA0599ADF81A00079869
:1048B000D0F8BC0A06F030FB06F07EFAADF818001E
:1048C0000798B0F8A00A40F2DC01C2F200010880AB
:1048D000BDF81A0048800798B0F8B80A8880BDF87B
:1048E0001800C8800798D0F8A80A40F2E401C2F284
:1048F000000108600798D0F8C00A486008B080BD81
:1049000081B0009001B0704780B5A6B0259003F04B
:10491000A1FF259890F8EB0A002840F0B380FFE74C
:1049200025992191D1F8D00AD1F8DC1A06F0CEFCF5
:1049300001462198229190F9E80A06F059FA0021DF
:10494000CCF2343106F0E8FA0146229806F07CF801
:1049500041F62431C2F200010860FFE741F624303D
:10496000C2F2000000680021C4F2B43106F014F96C
:1049700070B9FFE741F62430C2F2000020900068D1
:104980000021CCF2B43106F05FF820990860E5E729
:10499000FFE741F62430C2F200000068002106F073
:1049A000F4F870B9FFE741F62430C2F200001F901E
:1049B00000680021C4F2B43106F046F81F9908607F
:1049C000E7E741F62430C2F200001D90006802F0D3
:1049D00047FB01461D981E91006802F041FB01460D
:1049E0000020C4F2B43006F071FC01461E9806F0B7
:1049F000CCF848B9FFE741F62430C2F20000006865
:104A000002F02EFB24900EE041F62430C2F20000AA
:104A1000006802F025FB01460020C4F2B43006F025
:104A200055FC2490FFE724980021C4F2B42106F03D
:104A3000B3F830BBFFE7259991F8E80AB0FA80F0A7
:104A4000400981F8E80A25991B91D1F8D00AD1F8DC
:104A5000DC1A06F03BFC01461B981C9190F9E80A11
:104A600006F0C6F90021CCF2343106F055FA0146C1
:104A70001C9805F0E9FF41F62431C2F200010860FC
:104A8000FFE70CE02599D1F8D00AD1F8DC1A06F03E
:104A90001DFC41F62431C2F200010860FFE72598B1
:104AA00090F8EA0AB0BBFFE741F62430C2F20000FA
:104AB00000680021C4F2343106F06EF870B9FFE7E7
:104AC00041F62430C2F200001A9000680021CCF2B6
:104AD000B43105F0B9FF1A9908601AE041F62430A4
:104AE000C2F2000000680021CCF2343106F04DF82B
:104AF00070B9FFE741F62430C2F200001990006857
:104B00000021C4F2B43105F09FFF19990860FFE756
:104B1000FFE7FFE72598D0F8DC0A41F62431C2F21E
:104B20000001096805F090FF41F62831C2F200014A
:104B3000169108602598129090F8E81A0120002933
:104B400018BF4FF0FF3006F053F91299D1F8D81A78
:104B500006F0E2F94CF28F21C3F6F551139106F0FD
:104B600035F80146084605F06FFF42F6E061C4F2F1
:104B70006521149106F0D0F90146129801F010F960
:104B8000139925981590D0F8E40A06F01FF801460D
:104B9000084605F059FF149906F0BEF9014615982C
:104BA00001F0ECF81699259800F59360096801F07A
:104BB000C5F8259901F59360D1F8DC1A01F0A4F845
:104BC000259901F59360D1F8E01A01F0D7F82598FE
:104BD00001F0F0F8259800F5936001F0EBF82598C6
:104BE00000F5936001F0D4F906F0E6F82599A1F8F4
:104BF000B40A259801F0CCF906F0DEF82599A1F861
:104C0000CC0A259800F5936001F0C2F905F0F0FE9A
:104C1000002217920023C3F63873189305F0FCFCAA
:104C200005F0EEF92599C1F8A80A259801F0B0F928
:104C300005F0DEFE179A189B05F0EEFC05F0E0F992
:104C40002599C1F8C00A259801F0A0FD60B9FFE7D9
:104C5000259800F593600021119101F0A1F91199B7
:104C6000259801F09DF914E12598D0F8FC0940F64B
:104C7000A821C2F20001086000202390FFE72398DA
:104C800007286DDCFFE7239800EBD07121F00101CC
:104C9000401A80BBFFE725982399109101EB410151
:104CA00000EBC100B0F9100A06F0A2F840F20401CE
:104CB000C2F20001096805F089FF109901EBD17279
:104CC0006FF0020101EA420340F6A002C2F20002C4
:104CD000D0502598239A02EB420300EBC300D0F892
:104CE000180A02EBD27201EA420240F6B401C2F2A3
:104CF000000188502FE0259823990F9101EB410185
:104D000000EBC100B0F9100A06F072F840F204019D
:104D1000C2F20001096805F059FF0F9901EBD17249
:104D20006FF0020101EA420340F68422C2F200025F
:104D3000D0502598239A02EB420300EBC300D0F831
:104D4000180A02EBD27201EA420240F69821C2F23E
:104D500000018850FFE7FFE72398013023908EE79A
:104D6000259800F6681040F6A001C2F200010591F6
:104D700040F6B402C2F2000206920423089300F047
:104D80000FFD089B40F6B001C2F2000103910860DC
:104D9000259800F6681040F68421C2F200010991BE
:104DA00040F69822C2F200020A9200F0F9FC039B3E
:104DB00040F69422C2F200021060259800F66810B6
:104DC00040F6A821C2F2000112681B68096840F68B
:104DD000802EC2F2000ECDF81CE0EC46CCF808E0C4
:104DE00040F69C0EC2F2000ECDF810E0CCF804E0C4
:104DF000CCF800204CF6CD42C3F64C7200F08AFB92
:104E0000049B0599069ADDF820C0259800F66810E5
:104E10001B68EE46CEF800C000F0BEFB079BDDF835
:104E200020C009990A9A40F6782EC2F2000ECDF8F9
:104E30002CE0CEF80000259800F668101B68EE46BE
:104E4000CEF800C000F0A8FB40F67C21C2F20001C1
:104E50000D910860259800F593610C91B0F9B40AA2
:104E600005F0C6FF0B99096806F056F801460C9844
:104E700001F096F825980E90B0F9CC0A05F0B8FF2D
:104E80000D99096806F048F801460E9801F088F877
:104E9000FFE703F00BFD26B080BD000080B584B0B5
:104EA00003900291019203980068029905F06DFE4B
:104EB00020B9FFE70298039908600BE003980068A7
:104EC000019905F069FE20B9FFE701980399086090
:104ED000FFE7FFE704B080BD84B003908DF80B10AE
:104EE000039840F6C401C2F20001884227D1FFE7CF
:104EF0009DF80B000A380146009103281CD8009940
:104F0000DFE801F002080E1440F27800C2F200005F
:104F1000019011E040F28000C2F2000001900BE02D
:104F200040F28800C2F20000019005E040F29000DB
:104F3000C2F200000190FFE7019804B07047FEDE66
:104F400085B004908DF80F10049840F6C401C2F2A9
:104F5000000188425BD1FFE79DF80F000138014650
:104F600001910A2852D80199DFE801F0060C131AC2
:104F700021272E353C42490040F2A000C2F2000039
:104F8000029043E040F2A000C2F200000230029022
:104F90003CE040F2A000C2F200000430029035E094
:104FA00040F2A000C2F20000063002902EE040F273
:104FB0009800C2F20000029028E040F29800C2F28D
:104FC00000000230029021E040F29800C2F200009E
:104FD000043002901AE040F29800C2F2000006305D
:104FE000029013E040F2A800C2F2000002900DE02F
:104FF00040F2A800C2F200000230029006E040F247
:10500000A800C2F2000004300290FFE763E00498B9
:1050100040F6EC01C2F2000188425BD1FFE79DF847
:105020000F000138014600910A2852D80099DFE8A4
:1050300001F0060C131A21272E353C42490040F29C
:10504000F400C2F20000029043E040F2F400C2F229
:105050000000023002903CE040F2F400C2F2000096
:105060000430029035E040F2F400C2F20000063055
:1050700002902EE040F2EC00C2F20000029028E024
:1050800040F2EC00C2F200000230029021E040F257
:10509000EC00C2F20000043002901AE040F2EC0092
:1050A000C2F200000630029013E040F2FC00C2F2AF
:1050B000000002900DE040F2FC00C2F2000002305D
:1050C000029006E040F2FC00C2F2000004300290C0
:1050D000FFE7FFE7FFE7029805B0704710B586B01D
:1050E00000F0DEF941F20400CEF200000068059005
:1050F00040F24C10C2F2000001680598401A40F2DC
:105100004011C2F200010860086840F2301EC2F28D
:10511000000EDEF80020B0FBF2F240F67000C2F2A2
:10512000000000230293436002600A68D0F800C0C8
:105130004168DEF800E0ACFB0EC401FB0E41B2EBAF
:105140000C0C63EB010240F67801C2F200010391FE
:10515000C1F800C04A60006840F2DC32C2F20002CE
:10516000049210600868496840F23412C2F20002EA
:1051700001921268FBF7A7F8DDF804C0029B049ABD
:10518000014603989180016840689288DCF800C06D
:1051900002FB0CF28A1A60F1000040F68001C2F2B4
:1051A00000010A6048600868496840F23812C2F29B
:1051B00000021268FBF787F80499C88006B010BD9A
:1051C00080B58AB0DDF830C0099008910792069347
:1051D000099808990091401A05F00AFE009901907B
:1051E0000798401A05F004FE0146019805F0EEFC10
:1051F0000590059802900C980699039106F066F8C0
:105200000146029805F088FE039905F01DFC049004
:1052100004980AB080BD000080B582B0FFF75EFF41
:1052200040F2DC31C2F20001086843F60952424301
:1052300088884FF47A73584300EB8210C988084479
:105240000021019100900098019902B080BD0000FA
:1052500084B0039002910398019002980090019805
:10526000407800990870019800780099487004B05F
:105270007047000080B58EB00D908DF833100B9202
:105280000A939DF83300C0080590002006909DF811
:1052900033008007002818D5FFE7012007900B98FE
:1052A000C0F34F3000900B98C0009DF8331001F010
:1052B000030140EA410001900A98C0F34F30029088
:1052C0000A98C0000630039011E00020079000907B
:1052D0000B9949019DF8332002F0020241EA0211C4
:1052E000019102900A98400110300390FFE79DF869
:1052F0003300C0F3800004900E2009900120089034
:105300000D986946FBF772FC18B1FFE7FBF790FBBD
:10531000FFE70EB080BD000080B582B0019001981B
:10532000006800900D2822D0FFE7009840F201218C
:10533000884206D0FFE7009840F2022188420CD054
:1053400021E0019800F11C0141F21800C2F20000B6
:1053500000F5936000F0FCFC15E0019800F11C01E1
:1053600041F21800C2F2000000F0F2FC0BE00198DC
:1053700000F11C0141F21800C2F2000000F51360B8
:1053800000F05AFBFFE702B080BD000080B586B098
:1053900005900598006801901D38022816D3FFE794
:1053A00001982A38042819D3FFE701983A380428CD
:1053B00014D3FFE7019840F20E21884216D0FFE790
:1053C000019840F20F21884228D036E0059941F239
:1053D0001800C2F2000001F075F82FE0059941F2C3
:1053E0001800C2F2000001F0E7F827E00020049066
:1053F00003900598C06904900598006A0390049989
:1054000041F21800C2F2000000F66810009000F0AF
:1054100045FA0098039900F049FA0FE00020029045
:105420000598C0690290029941F21800C2F200008A
:1054300000F6681000F066F800E0FFE706B080BDF7
:1054400080B582B001900198002105F0A5FB18B944
:10545000FFE70198009004E0019880F00040009080
:10546000FFE7009802B080BD80B582B00090009840
:10547000FFF7E6FF4FF0525105F080FB20B9FFE740
:105480004FF07E50019007E0009801F0EDFE00998A
:1054900005F09CFB0190FFE7019802B080BD000081
:1054A00081B041F20400CEF2000000680090009844
:1054B00040F24811C2F200010968884208D2FFE7B1
:1054C00040F24C11C2F20001086801300860FFE7A9
:1054D000009840F24811C2F20001086001B0704724
:1054E00080B582B00190019840F6DB71C4F24901A9
:1054F00005F012FD0021C4F2F01105F067FB02B0C7
:1055000080BD000082B00190009101990098C860B0
:1055100002B0704780B58AB0DDF838C0DDF834C01D
:10552000DDF830C009900891079206930898079912
:1055300005F0F2FC05900898019007994FF07E5015
:1055400005F0C4FE0146019805F0E6FC04900698BB
:10555000059905F021FB18B9FFE70598039002E0D3
:1055600006980390FFE70898039905F0AFFE0490B2
:105570000C98049905F010FB18B9FFE70498029005
:1055800002E00C980290FFE703980D9908600298DA
:105590000E9908600AB080BD80B5A2B084462498F8
:1055A000CDF884C020911F921E938DF8770021982A
:1055B00012904FF07E501C9000201390FFE713983C
:1055C0009DF87710884280F28080FFE71F9813993A
:1055D00050F821101A980990084605F09DFC099989
:1055E00005F032FA1A902098139950F82100FFF72D
:1055F00077FF0A902098139950F82100FFF770FF69
:1056000001460A98199A0B9205F086FC0B9905F051
:105610001BFA19902098139950F82100FFF760FFAA
:105620001F99139A51F8221005F076FC01F018FD2D
:105630000146189805F008FA18902098139950F828
:105640002100FFF74DFF1F99139A51F8221005F022
:1056500063FC01F005FD129A0D901F9813990E91AD
:1056600050F821100C91106852680F9205F054FC0C
:105670000C9905F051FC0D9905F0E6F90E99119081
:10568000209850F82100FFF72BFF01460F9805F0F6
:1056900043FC10902098139950F82100FFF720FF49
:1056A0000146109805F038FC119905F0CDF91299D2
:1056B000896805F0C9F901461B9805F0C5F91B90EA
:1056C000FFE713980130139079E71B981E9905F0B6
:1056D00063FA002852D1FFE7129800681A9905F082
:1056E0001BFC129A17901898169019991E980490FE
:1056F00050689268059205F00FFC049905F0E6FDEC
:1057000006909DF8770005F073FB0146059805F0BB
:1057100003FC069905F098F91590169807901798CC
:105720000021CCF2800105F0F7FB159905F0F4FBA0
:1057300007990890084605F0EFFB089905F084F9F1
:1057400014901498002105F02EFA98B9FFE71698E6
:105750000290149804F03EFC029905F0B7FD039006
:105760001799084605F070F90146039805F02EFADE
:105770001C9002E000201C90FFE7FFE71C984FF010
:105780007E5105F009FA20B9FFE74FF07E500190F5
:1057900002E01C980190FFE7019822B080BD000054
:1057A00080B58EB00D900C910B920A930D980690D7
:1057B0000020099008900790FFE707980A9988420F
:1057C0004DDAFFE70C98079950F82100FFF788FEA3
:1057D0000B99079A51F8221005F09EFB01F040FC4E
:1057E000069A01900B980799029150F821100091A8
:1057F00010685268039205F08FFB009905F08CFB4E
:10580000019905F021F9029905900C9850F82100B2
:10581000FFF766FE0146039805F07EFB04900C98A6
:10582000079950F82100FFF75BFE0146049805F048
:1058300073FB059905F008F90699896805F004F9E4
:1058400005F0D6F802460B460898099904F00AFCC0
:1058500009910890FFE7079801300790ADE7089895
:10586000099904F0CDFB0EB080BD000080B58CB06E
:105870000B900B980168099141680A9110300190D2
:1058800003A8029009A901F0F3F80198029901F028
:105890004FF8029801F02CF90CB080BD82B0019055
:1058A000009101990098086002B0704782B00190A1
:1058B000009101990098486002B0704780B582B0AD
:1058C00001900199009146F26660C3F6A6700860E7
:1058D00047F67820C3F62540486043F23330C3F6DC
:1058E000537088604FF67210C3F67F70C86001F184
:1058F0001000CA684CF2AC51C3F2277101F070F885
:10590000009802B080BD000080B582B0019001987F
:105910000090103001F088F8009802B080BD0000BF
:1059200080B590B00F900F980B90006820300C90CD
:10593000FFF772FC0190019940F68C00C2F2000062
:1059400009900160006840F69001C2F200010A91DE
:105950000968401A05F064FA01460B9840F698026F
:10596000C2F20002049211600C99D1F80310C161D7
:10597000C06904F0C1FD0022059248F20003C4F2A0
:105980007603069304F048FE02460B9802920391B8
:10599000C08804F0B1FD024602980B46039904F05A
:1059A00015FC04F02DFB01460B984162406A002172
:1059B000C4F2E14101F098FB0B998862C869096A59
:1059C000401A05F015FA0499096805F0FFF805F08A
:1059D0000FF8059A48F28043C4F22E1304F01CFE1F
:1059E000059A069B04F018FE02460B980792089150
:1059F000C08804F081FD024607980B46089904F020
:105A0000E5FB04F0FDFA09990A9A03460B98C36274
:105A1000C369036209681160007E20B9FFE70B9932
:105A200001200876FFE710B080BD000081B0009033
:105A30000098806A01B0704780B582B001900091F3
:105A40000198016901310161FFF76AFF02B080BD71
:105A500080B584B003900398042180F83010017958
:105A600080F83110012180F832109DF80B1080F879
:105A70003710DDF80710C0F8331000F04FF804B00D
:105A800080BD000010B586B08C46864609980899FE
:105A9000CDF814E0CDF810C08DF80F208DF80E3041
:105AA000ADF80C108DF80B00059801900498006873
:105AB00046F20041C4F20001884207D1FFE7019994
:105AC00040F2B000C2F20000086010E004980068E4
:105AD00046F60001C4F20001884207D1FFE70199B0
